{
  "contractName": "Wrestling",
  "abi": [
    {
      "constant": true,
      "inputs": [],
      "name": "theWinner",
      "outputs": [
        {
          "name": "",
          "type": "address"
        }
      ],
      "payable": false,
      "stateMutability": "view",
      "type": "function"
    },
    {
      "constant": true,
      "inputs": [],
      "name": "wrestler2",
      "outputs": [
        {
          "name": "",
          "type": "address"
        }
      ],
      "payable": false,
      "stateMutability": "view",
      "type": "function"
    },
    {
      "constant": true,
      "inputs": [],
      "name": "wrestler1Played",
      "outputs": [
        {
          "name": "",
          "type": "bool"
        }
      ],
      "payable": false,
      "stateMutability": "view",
      "type": "function"
    },
    {
      "constant": true,
      "inputs": [],
      "name": "wrestler1",
      "outputs": [
        {
          "name": "",
          "type": "address"
        }
      ],
      "payable": false,
      "stateMutability": "view",
      "type": "function"
    },
    {
      "constant": true,
      "inputs": [],
      "name": "gameFinished",
      "outputs": [
        {
          "name": "",
          "type": "bool"
        }
      ],
      "payable": false,
      "stateMutability": "view",
      "type": "function"
    },
    {
      "constant": true,
      "inputs": [],
      "name": "wrestler2Played",
      "outputs": [
        {
          "name": "",
          "type": "bool"
        }
      ],
      "payable": false,
      "stateMutability": "view",
      "type": "function"
    },
    {
      "inputs": [],
      "payable": false,
      "stateMutability": "nonpayable",
      "type": "constructor"
    },
    {
      "anonymous": false,
      "inputs": [
        {
          "indexed": false,
          "name": "w1",
          "type": "address"
        },
        {
          "indexed": false,
          "name": "w2",
          "type": "address"
        }
      ],
      "name": "WrestlingStartsEvent",
      "type": "event"
    },
    {
      "anonymous": false,
      "inputs": [
        {
          "indexed": false,
          "name": "wrestler1Deposit",
          "type": "uint256"
        },
        {
          "indexed": false,
          "name": "wrestler2Deposit",
          "type": "uint256"
        }
      ],
      "name": "EndOfRoundEvent",
      "type": "event"
    },
    {
      "anonymous": false,
      "inputs": [
        {
          "indexed": false,
          "name": "winner",
          "type": "address"
        },
        {
          "indexed": false,
          "name": "gains",
          "type": "uint256"
        }
      ],
      "name": "EndOfWrestlingEvent",
      "type": "event"
    },
    {
      "constant": false,
      "inputs": [],
      "name": "registerAsAnOpponenet",
      "outputs": [],
      "payable": false,
      "stateMutability": "nonpayable",
      "type": "function"
    },
    {
      "constant": false,
      "inputs": [],
      "name": "wrestle",
      "outputs": [],
      "payable": true,
      "stateMutability": "payable",
      "type": "function"
    },
    {
      "constant": false,
      "inputs": [],
      "name": "withdraw",
      "outputs": [],
      "payable": false,
      "stateMutability": "nonpayable",
      "type": "function"
    }
  ],
  "bytecode": "0x6060604052341561000f57600080fd5b336000806101000a81548173ffffffffffffffffffffffffffffffffffffffff021916908373ffffffffffffffffffffffffffffffffffffffff16021790555061092f8061005e6000396000f300606060405260043610610099576000357c0100000000000000000000000000000000000000000000000000000000900463ffffffff16806303cc55971461009e578063335bc52a146100a85780633ccfd60b146100bd5780639d24e482146100d25780639e07f92a146101275780639ede38581461017c578063e2f0a978146101a9578063f0f32497146101fe578063f973728e1461022b575b600080fd5b6100a6610258565b005b34156100b357600080fd5b6100bb6104c5565b005b34156100c857600080fd5b6100d061063f565b005b34156100dd57600080fd5b6100e5610705565b604051808273ffffffffffffffffffffffffffffffffffffffff1673ffffffffffffffffffffffffffffffffffffffff16815260200191505060405180910390f35b341561013257600080fd5b61013a61072b565b604051808273ffffffffffffffffffffffffffffffffffffffff1673ffffffffffffffffffffffffffffffffffffffff16815260200191505060405180910390f35b341561018757600080fd5b61018f610751565b604051808215151515815260200191505060405180910390f35b34156101b457600080fd5b6101bc610764565b604051808273ffffffffffffffffffffffffffffffffffffffff1673ffffffffffffffffffffffffffffffffffffffff16815260200191505060405180910390f35b341561020957600080fd5b610211610789565b604051808215151515815260200191505060405180910390f35b341561023657600080fd5b61023e61079c565b604051808215151515815260200191505060405180910390f35b600460009054906101000a900460ff1615801561031957506000809054906101000a900473ffffffffffffffffffffffffffffffffffffffff1673ffffffffffffffffffffffffffffffffffffffff163373ffffffffffffffffffffffffffffffffffffffff1614806103185750600160009054906101000a900473ffffffffffffffffffffffffffffffffffffffff1673ffffffffffffffffffffffffffffffffffffffff163373ffffffffffffffffffffffffffffffffffffffff16145b5b151561032457600080fd5b6000809054906101000a900473ffffffffffffffffffffffffffffffffffffffff1673ffffffffffffffffffffffffffffffffffffffff163373ffffffffffffffffffffffffffffffffffffffff1614156103c55760001515600160149054906101000a900460ff16151514151561039b57600080fd5b60018060146101000a81548160ff021916908315150217905550346002540160028190555061040d565b60001515600160159054906101000a900460ff1615151415156103e757600080fd5b60018060156101000a81548160ff02191690831515021790555034600354016003819055505b600160149054906101000a900460ff1680156104355750600160159054906101000a900460ff165b156104c357600260035402600254101515610479576104746000809054906101000a900473ffffffffffffffffffffffffffffffffffffffff166107af565b6104c2565b60028054026003541015156104b8576104b3600160009054906101000a900473ffffffffffffffffffffffffffffffffffffffff166107af565b6104c1565b6104c0610888565b5b5b5b565b600073ffffffffffffffffffffffffffffffffffffffff16600160009054906101000a900473ffffffffffffffffffffffffffffffffffffffff1673ffffffffffffffffffffffffffffffffffffffff1614151561052257600080fd5b33600160006101000a81548173ffffffffffffffffffffffffffffffffffffffff021916908373ffffffffffffffffffffffffffffffffffffffff1602179055507fd4443f0433b17d5fcbda14745060c62f4fd645677efd560e394d49cc6b73b9e56000809054906101000a900473ffffffffffffffffffffffffffffffffffffffff16600160009054906101000a900473ffffffffffffffffffffffffffffffffffffffff16604051808373ffffffffffffffffffffffffffffffffffffffff1673ffffffffffffffffffffffffffffffffffffffff1681526020018273ffffffffffffffffffffffffffffffffffffffff1673ffffffffffffffffffffffffffffffffffffffff1681526020019250505060405180910390a1565b6000600460009054906101000a900460ff1680156106aa57503373ffffffffffffffffffffffffffffffffffffffff16600460019054906101000a900473ffffffffffffffffffffffffffffffffffffffff1673ffffffffffffffffffffffffffffffffffffffff16145b15156106b557600080fd5b600554905060006005819055503373ffffffffffffffffffffffffffffffffffffffff166108fc829081150290604051600060405180830381858888f19350505050151561070257600080fd5b50565b600460019054906101000a900473ffffffffffffffffffffffffffffffffffffffff1681565b600160009054906101000a900473ffffffffffffffffffffffffffffffffffffffff1681565b600160149054906101000a900460ff1681565b6000809054906101000a900473ffffffffffffffffffffffffffffffffffffffff1681565b600460009054906101000a900460ff1681565b600160159054906101000a900460ff1681565b6001600460006101000a81548160ff02191690831515021790555080600460016101000a81548173ffffffffffffffffffffffffffffffffffffffff021916908373ffffffffffffffffffffffffffffffffffffffff160217905550600354600254016005819055507f132c17ee6430a7c27424b2711c0e3f020ae13d9d62cfb347ae343c2180654bcb81600554604051808373ffffffffffffffffffffffffffffffffffffffff1673ffffffffffffffffffffffffffffffffffffffff1681526020018281526020019250505060405180910390a150565b6000600160146101000a81548160ff0219169083151502179055506000600160156101000a81548160ff0219169083151502179055507f4a06b026e39d5ecf4150ef1983227e240bcd23677c8d89479f9521c4e7bed63e600254600354604051808381526020018281526020019250505060405180910390a15600a165627a7a723058206a054df2ada789a3e9647243c857292f4ccc8ec0f22436970317f175dfcd0e4c0029",
  "source": "pragma solidity ^0.4.18;\n\ncontract Wrestling {\n    address public wrestler1;\n    address public wrestler2;\n\n    bool public wrestler1Played;\n    bool public wrestler2Played;\n\n    uint private wrestler1Deposit;\n    uint private wrestler2Deposit;\n\n    bool public gameFinished;\n    address public theWinner;\n    uint gains;\n\n    event WrestlingStartsEvent(address w1, address w2);\n    event EndOfRoundEvent(uint wrestler1Deposit, uint wrestler2Deposit);\n    event EndOfWrestlingEvent(address winner, uint gains);\n\n    function Wrestling() public {\n        wrestler1 = msg.sender;\n    }\n\n    function registerAsAnOpponenet() public {\n        require(wrestler2 == address(0));\n        wrestler2 = msg.sender;\n        WrestlingStartsEvent(wrestler1, wrestler2);\n    }\n\n    function wrestle() public payable {\n        require(!gameFinished && (msg.sender == wrestler1 || msg.sender == wrestler2));\n        \n        if (msg.sender == wrestler1) {\n            require(wrestler1Played == false);\n            wrestler1Played = true;\n            wrestler1Deposit = wrestler1Deposit + msg.value;\n        } else {\n            require(wrestler2Played == false);\n            wrestler2Played = true;\n            wrestler2Deposit = wrestler2Deposit + msg.value;\n        }\n        if (wrestler1Played && wrestler2Played) {\n            if (wrestler1Deposit >= wrestler2Deposit * 2) {\n                endOfGame(wrestler1);\n            } else if (wrestler2Deposit >= wrestler1Deposit * 2) {\n                endOfGame(wrestler2);\n            } else {\n                endOfRound();\n            }\n        }\n    }\n\n    function endOfRound() internal {\n        wrestler1Played = false;\n        wrestler2Played = false;\n        EndOfRoundEvent(wrestler1Deposit, wrestler2Deposit);\n    }\n\n    function endOfGame(address winner) internal {\n        gameFinished = true;\n        theWinner = winner;\n\n        gains = wrestler1Deposit + wrestler2Deposit;\n        EndOfWrestlingEvent(winner, gains);\n    }\n\n    function withdraw() public {\n        require(gameFinished && theWinner == msg.sender);\n        uint amount = gains;\n        gains = 0;\n        msg.sender.transfer(amount);\n    }\n\n}",
  "sourcePath": "/home/eth/Documents/wrestler/contracts/Wrestler.sol",
  "compiler": {
    "name": "solc",
    "version": "0.4.19+commit.c4cbbb05.Emscripten.clang"
  },
  "schemaVersion": "2.0.0",
  "updatedAt": "2018-03-12T04:44:53.402Z"
}